{
  "_format": "hh-sol-artifact-1",
  "contractName": "MyCryptoLions",
  "sourceName": "contracts/MyCryptoLions.sol",
  "abi": [
    {
      "inputs": [
        {
          "internalType": "string",
          "name": "name",
          "type": "string"
        },
        {
          "internalType": "string",
          "name": "symbol",
          "type": "string"
        }
      ],
      "stateMutability": "nonpayable",
      "type": "constructor"
    },
    {
      "anonymous": false,
      "inputs": [
        {
          "indexed": true,
          "internalType": "address",
          "name": "owner",
          "type": "address"
        },
        {
          "indexed": true,
          "internalType": "address",
          "name": "approved",
          "type": "address"
        },
        {
          "indexed": true,
          "internalType": "uint256",
          "name": "tokenId",
          "type": "uint256"
        }
      ],
      "name": "Approval",
      "type": "event"
    },
    {
      "anonymous": false,
      "inputs": [
        {
          "indexed": true,
          "internalType": "address",
          "name": "owner",
          "type": "address"
        },
        {
          "indexed": true,
          "internalType": "address",
          "name": "operator",
          "type": "address"
        },
        {
          "indexed": false,
          "internalType": "bool",
          "name": "approved",
          "type": "bool"
        }
      ],
      "name": "ApprovalForAll",
      "type": "event"
    },
    {
      "anonymous": false,
      "inputs": [
        {
          "indexed": true,
          "internalType": "address",
          "name": "from",
          "type": "address"
        },
        {
          "indexed": true,
          "internalType": "address",
          "name": "to",
          "type": "address"
        },
        {
          "indexed": true,
          "internalType": "uint256",
          "name": "tokenId",
          "type": "uint256"
        }
      ],
      "name": "Transfer",
      "type": "event"
    },
    {
      "inputs": [
        {
          "internalType": "address",
          "name": "to",
          "type": "address"
        },
        {
          "internalType": "uint256",
          "name": "tokenId",
          "type": "uint256"
        }
      ],
      "name": "approve",
      "outputs": [],
      "stateMutability": "nonpayable",
      "type": "function"
    },
    {
      "inputs": [
        {
          "internalType": "address",
          "name": "owner",
          "type": "address"
        }
      ],
      "name": "balanceOf",
      "outputs": [
        {
          "internalType": "uint256",
          "name": "",
          "type": "uint256"
        }
      ],
      "stateMutability": "view",
      "type": "function"
    },
    {
      "inputs": [],
      "name": "baseURI",
      "outputs": [
        {
          "internalType": "string",
          "name": "",
          "type": "string"
        }
      ],
      "stateMutability": "view",
      "type": "function"
    },
    {
      "inputs": [
        {
          "internalType": "string",
          "name": "tokenURI",
          "type": "string"
        }
      ],
      "name": "createCollectible",
      "outputs": [
        {
          "internalType": "uint256",
          "name": "",
          "type": "uint256"
        }
      ],
      "stateMutability": "nonpayable",
      "type": "function"
    },
    {
      "inputs": [
        {
          "internalType": "uint256",
          "name": "tokenId",
          "type": "uint256"
        }
      ],
      "name": "getApproved",
      "outputs": [
        {
          "internalType": "address",
          "name": "",
          "type": "address"
        }
      ],
      "stateMutability": "view",
      "type": "function"
    },
    {
      "inputs": [
        {
          "internalType": "address",
          "name": "owner",
          "type": "address"
        },
        {
          "internalType": "address",
          "name": "operator",
          "type": "address"
        }
      ],
      "name": "isApprovedForAll",
      "outputs": [
        {
          "internalType": "bool",
          "name": "",
          "type": "bool"
        }
      ],
      "stateMutability": "view",
      "type": "function"
    },
    {
      "inputs": [],
      "name": "name",
      "outputs": [
        {
          "internalType": "string",
          "name": "",
          "type": "string"
        }
      ],
      "stateMutability": "view",
      "type": "function"
    },
    {
      "inputs": [
        {
          "internalType": "uint256",
          "name": "",
          "type": "uint256"
        }
      ],
      "name": "newTokenIdToSender",
      "outputs": [
        {
          "internalType": "address",
          "name": "tokenOwner",
          "type": "address"
        },
        {
          "internalType": "string",
          "name": "tokenURI",
          "type": "string"
        }
      ],
      "stateMutability": "view",
      "type": "function"
    },
    {
      "inputs": [
        {
          "internalType": "uint256",
          "name": "tokenId",
          "type": "uint256"
        }
      ],
      "name": "ownerOf",
      "outputs": [
        {
          "internalType": "address",
          "name": "",
          "type": "address"
        }
      ],
      "stateMutability": "view",
      "type": "function"
    },
    {
      "inputs": [
        {
          "internalType": "address",
          "name": "from",
          "type": "address"
        },
        {
          "internalType": "address",
          "name": "to",
          "type": "address"
        },
        {
          "internalType": "uint256",
          "name": "tokenId",
          "type": "uint256"
        }
      ],
      "name": "safeTransferFrom",
      "outputs": [],
      "stateMutability": "nonpayable",
      "type": "function"
    },
    {
      "inputs": [
        {
          "internalType": "address",
          "name": "from",
          "type": "address"
        },
        {
          "internalType": "address",
          "name": "to",
          "type": "address"
        },
        {
          "internalType": "uint256",
          "name": "tokenId",
          "type": "uint256"
        },
        {
          "internalType": "bytes",
          "name": "_data",
          "type": "bytes"
        }
      ],
      "name": "safeTransferFrom",
      "outputs": [],
      "stateMutability": "nonpayable",
      "type": "function"
    },
    {
      "inputs": [
        {
          "internalType": "address",
          "name": "operator",
          "type": "address"
        },
        {
          "internalType": "bool",
          "name": "approved",
          "type": "bool"
        }
      ],
      "name": "setApprovalForAll",
      "outputs": [],
      "stateMutability": "nonpayable",
      "type": "function"
    },
    {
      "inputs": [
        {
          "internalType": "bytes4",
          "name": "interfaceId",
          "type": "bytes4"
        }
      ],
      "name": "supportsInterface",
      "outputs": [
        {
          "internalType": "bool",
          "name": "",
          "type": "bool"
        }
      ],
      "stateMutability": "view",
      "type": "function"
    },
    {
      "inputs": [],
      "name": "symbol",
      "outputs": [
        {
          "internalType": "string",
          "name": "",
          "type": "string"
        }
      ],
      "stateMutability": "view",
      "type": "function"
    },
    {
      "inputs": [
        {
          "internalType": "uint256",
          "name": "index",
          "type": "uint256"
        }
      ],
      "name": "tokenByIndex",
      "outputs": [
        {
          "internalType": "uint256",
          "name": "",
          "type": "uint256"
        }
      ],
      "stateMutability": "view",
      "type": "function"
    },
    {
      "inputs": [],
      "name": "tokenCounter",
      "outputs": [
        {
          "internalType": "uint256",
          "name": "",
          "type": "uint256"
        }
      ],
      "stateMutability": "view",
      "type": "function"
    },
    {
      "inputs": [
        {
          "internalType": "address",
          "name": "owner",
          "type": "address"
        },
        {
          "internalType": "uint256",
          "name": "index",
          "type": "uint256"
        }
      ],
      "name": "tokenOfOwnerByIndex",
      "outputs": [
        {
          "internalType": "uint256",
          "name": "",
          "type": "uint256"
        }
      ],
      "stateMutability": "view",
      "type": "function"
    },
    {
      "inputs": [
        {
          "internalType": "uint256",
          "name": "tokenId",
          "type": "uint256"
        }
      ],
      "name": "tokenURI",
      "outputs": [
        {
          "internalType": "string",
          "name": "",
          "type": "string"
        }
      ],
      "stateMutability": "view",
      "type": "function"
    },
    {
      "inputs": [],
      "name": "totalSupply",
      "outputs": [
        {
          "internalType": "uint256",
          "name": "",
          "type": "uint256"
        }
      ],
      "stateMutability": "view",
      "type": "function"
    },
    {
      "inputs": [
        {
          "internalType": "address",
          "name": "from",
          "type": "address"
        },
        {
          "internalType": "address",
          "name": "to",
          "type": "address"
        },
        {
          "internalType": "uint256",
          "name": "tokenId",
          "type": "uint256"
        }
      ],
      "name": "transferFrom",
      "outputs": [],
      "stateMutability": "nonpayable",
      "type": "function"
    }
  ],
  "bytecode": "0x60806040523480156200001157600080fd5b506040516200349538038062003495833981810160405260408110156200003757600080fd5b81019080805160405193929190846401000000008211156200005857600080fd5b838201915060208201858111156200006f57600080fd5b82518660018202830111640100000000821117156200008d57600080fd5b8083526020830192505050908051906020019080838360005b83811015620000c3578082015181840152602081019050620000a6565b50505050905090810190601f168015620000f15780820380516001836020036101000a031916815260200191505b50604052602001805160405193929190846401000000008211156200011557600080fd5b838201915060208201858111156200012c57600080fd5b82518660018202830111640100000000821117156200014a57600080fd5b8083526020830192505050908051906020019080838360005b838110156200018057808201518184015260208101905062000163565b50505050905090810190601f168015620001ae5780820380516001836020036101000a031916815260200191505b506040525050508181620001cf6301ffc9a760e01b6200025b60201b60201c565b8160069080519060200190620001e792919062000364565b5080600790805190602001906200020092919062000364565b50620002196380ac58cd60e01b6200025b60201b60201c565b62000231635b5e139f60e01b6200025b60201b60201c565b6200024963780e9d6360e01b6200025b60201b60201c565b50506000600a8190555050506200041a565b63ffffffff60e01b817bffffffffffffffffffffffffffffffffffffffffffffffffffffffff19161415620002f8576040517f08c379a000000000000000000000000000000000000000000000000000000000815260040180806020018281038252601c8152602001807f4552433136353a20696e76616c696420696e746572666163652069640000000081525060200191505060405180910390fd5b6001600080837bffffffffffffffffffffffffffffffffffffffffffffffffffffffff19167bffffffffffffffffffffffffffffffffffffffffffffffffffffffff1916815260200190815260200160002060006101000a81548160ff02191690831515021790555050565b828054600181600116156101000203166002900490600052602060002090601f0160209004810192826200039c5760008555620003e8565b82601f10620003b757805160ff1916838001178555620003e8565b82800160010185558215620003e8579182015b82811115620003e7578251825591602001919060010190620003ca565b5b509050620003f79190620003fb565b5090565b5b8082111562000416576000816000905550600101620003fc565b5090565b61306b806200042a6000396000f3fe608060405234801561001057600080fd5b506004361061012c5760003560e01c80636352211e116100ad578063a22cb46511610071578063a22cb465146107a4578063b88d4fde146107f4578063c87b56dd146108f9578063d082e381146109a0578063e985e9c5146109be5761012c565b80636352211e1461052a57806363ceba8d146105825780636c0360eb1461064657806370a08231146106c957806395d89b41146107215761012c565b806323b872dd116100f457806323b872dd146102db5780632f745c591461034957806331f1f3c3146103ab57806342842e0e1461047a5780634f6ccce7146104e85761012c565b806301ffc9a71461013157806306fdde0314610194578063081812fc14610217578063095ea7b31461026f57806318160ddd146102bd575b600080fd5b61017c6004803603602081101561014757600080fd5b8101908080357bffffffffffffffffffffffffffffffffffffffffffffffffffffffff19169060200190929190505050610a38565b60405180821515815260200191505060405180910390f35b61019c610a9f565b6040518080602001828103825283818151815260200191508051906020019080838360005b838110156101dc5780820151818401526020810190506101c1565b50505050905090810190601f1680156102095780820380516001836020036101000a031916815260200191505b509250505060405180910390f35b6102436004803603602081101561022d57600080fd5b8101908080359060200190929190505050610b41565b604051808273ffffffffffffffffffffffffffffffffffffffff16815260200191505060405180910390f35b6102bb6004803603604081101561028557600080fd5b81019080803573ffffffffffffffffffffffffffffffffffffffff16906020019092919080359060200190929190505050610bdc565b005b6102c5610d20565b6040518082815260200191505060405180910390f35b610347600480360360608110156102f157600080fd5b81019080803573ffffffffffffffffffffffffffffffffffffffff169060200190929190803573ffffffffffffffffffffffffffffffffffffffff16906020019092919080359060200190929190505050610d31565b005b6103956004803603604081101561035f57600080fd5b81019080803573ffffffffffffffffffffffffffffffffffffffff16906020019092919080359060200190929190505050610da7565b6040518082815260200191505060405180910390f35b610464600480360360208110156103c157600080fd5b81019080803590602001906401000000008111156103de57600080fd5b8201836020820111156103f057600080fd5b8035906020019184600183028401116401000000008311171561041257600080fd5b91908080601f016020809104026020016040519081016040528093929190818152602001838380828437600081840152601f19601f820116905080830192505050505050509192919290505050610e02565b6040518082815260200191505060405180910390f35b6104e66004803603606081101561049057600080fd5b81019080803573ffffffffffffffffffffffffffffffffffffffff169060200190929190803573ffffffffffffffffffffffffffffffffffffffff16906020019092919080359060200190929190505050610f1c565b005b610514600480360360208110156104fe57600080fd5b8101908080359060200190929190505050610f3c565b6040518082815260200191505060405180910390f35b6105566004803603602081101561054057600080fd5b8101908080359060200190929190505050610f5f565b604051808273ffffffffffffffffffffffffffffffffffffffff16815260200191505060405180910390f35b6105ae6004803603602081101561059857600080fd5b8101908080359060200190929190505050610f96565b604051808373ffffffffffffffffffffffffffffffffffffffff16815260200180602001828103825283818151815260200191508051906020019080838360005b8381101561060a5780820151818401526020810190506105ef565b50505050905090810190601f1680156106375780820380516001836020036101000a031916815260200191505b50935050505060405180910390f35b61064e611072565b6040518080602001828103825283818151815260200191508051906020019080838360005b8381101561068e578082015181840152602081019050610673565b50505050905090810190601f1680156106bb5780820380516001836020036101000a031916815260200191505b509250505060405180910390f35b61070b600480360360208110156106df57600080fd5b81019080803573ffffffffffffffffffffffffffffffffffffffff169060200190929190505050611114565b6040518082815260200191505060405180910390f35b6107296111e9565b6040518080602001828103825283818151815260200191508051906020019080838360005b8381101561076957808201518184015260208101905061074e565b50505050905090810190601f1680156107965780820380516001836020036101000a031916815260200191505b509250505060405180910390f35b6107f2600480360360408110156107ba57600080fd5b81019080803573ffffffffffffffffffffffffffffffffffffffff16906020019092919080351515906020019092919050505061128b565b005b6108f76004803603608081101561080a57600080fd5b81019080803573ffffffffffffffffffffffffffffffffffffffff169060200190929190803573ffffffffffffffffffffffffffffffffffffffff169060200190929190803590602001909291908035906020019064010000000081111561087157600080fd5b82018360208201111561088357600080fd5b803590602001918460018302840111640100000000831117156108a557600080fd5b91908080601f016020809104026020016040519081016040528093929190818152602001838380828437600081840152601f19601f820116905080830192505050505050509192919290505050611441565b005b6109256004803603602081101561090f57600080fd5b81019080803590602001909291905050506114b9565b6040518080602001828103825283818151815260200191508051906020019080838360005b8381101561096557808201518184015260208101905061094a565b50505050905090810190601f1680156109925780820380516001836020036101000a031916815260200191505b509250505060405180910390f35b6109a861178a565b6040518082815260200191505060405180910390f35b610a20600480360360408110156109d457600080fd5b81019080803573ffffffffffffffffffffffffffffffffffffffff169060200190929190803573ffffffffffffffffffffffffffffffffffffffff169060200190929190505050611790565b60405180821515815260200191505060405180910390f35b6000806000837bffffffffffffffffffffffffffffffffffffffffffffffffffffffff19167bffffffffffffffffffffffffffffffffffffffffffffffffffffffff1916815260200190815260200160002060009054906101000a900460ff169050919050565b606060068054600181600116156101000203166002900480601f016020809104026020016040519081016040528092919081815260200182805460018160011615610100020316600290048015610b375780601f10610b0c57610100808354040283529160200191610b37565b820191906000526020600020905b815481529060010190602001808311610b1a57829003601f168201915b5050505050905090565b6000610b4c82611824565b610ba1576040517f08c379a000000000000000000000000000000000000000000000000000000000815260040180806020018281038252602c815260200180612f34602c913960400191505060405180910390fd5b6004600083815260200190815260200160002060009054906101000a900473ffffffffffffffffffffffffffffffffffffffff169050919050565b6000610be782610f5f565b90508073ffffffffffffffffffffffffffffffffffffffff168373ffffffffffffffffffffffffffffffffffffffff161415610c6e576040517f08c379a0000000000000000000000000000000000000000000000000000000008152600401808060200182810382526021815260200180612fe46021913960400191505060405180910390fd5b8073ffffffffffffffffffffffffffffffffffffffff16610c8d611841565b73ffffffffffffffffffffffffffffffffffffffff161480610cbc5750610cbb81610cb6611841565b611790565b5b610d11576040517f08c379a0000000000000000000000000000000000000000000000000000000008152600401808060200182810382526038815260200180612e876038913960400191505060405180910390fd5b610d1b8383611849565b505050565b6000610d2c6002611902565b905090565b610d42610d3c611841565b82611917565b610d97576040517f08c379a00000000000000000000000000000000000000000000000000000000081526004018080602001828103825260318152602001806130056031913960400191505060405180910390fd5b610da2838383611a0b565b505050565b6000610dfa82600160008673ffffffffffffffffffffffffffffffffffffffff1673ffffffffffffffffffffffffffffffffffffffff168152602001908152602001600020611c4e90919063ffffffff16565b905092915050565b600080600a549050610e143382611c68565b610e1e8184611c86565b60405180604001604052803373ffffffffffffffffffffffffffffffffffffffff16815260200184815250600b600083815260200190815260200160002060008201518160000160006101000a81548173ffffffffffffffffffffffffffffffffffffffff021916908373ffffffffffffffffffffffffffffffffffffffff1602179055506020820151816001019080519060200190610ebf929190612d11565b509050506001600a60008282540192505081905550610f136040518060400160405280600a81526020017f546f6b656e5552493a200000000000000000000000000000000000000000000081525084611d10565b80915050919050565b610f3783838360405180602001604052806000815250611441565b505050565b600080610f53836002611e7c90919063ffffffff16565b50905080915050919050565b6000610f8f82604051806060016040528060298152602001612ee9602991396002611ea89092919063ffffffff16565b9050919050565b600b6020528060005260406000206000915090508060000160009054906101000a900473ffffffffffffffffffffffffffffffffffffffff1690806001018054600181600116156101000203166002900480601f0160208091040260200160405190810160405280929190818152602001828054600181600116156101000203166002900480156110685780601f1061103d57610100808354040283529160200191611068565b820191906000526020600020905b81548152906001019060200180831161104b57829003601f168201915b5050505050905082565b606060098054600181600116156101000203166002900480601f01602080910402602001604051908101604052809291908181526020018280546001816001161561010002031660029004801561110a5780601f106110df5761010080835404028352916020019161110a565b820191906000526020600020905b8154815290600101906020018083116110ed57829003601f168201915b5050505050905090565b60008073ffffffffffffffffffffffffffffffffffffffff168273ffffffffffffffffffffffffffffffffffffffff16141561119b576040517f08c379a000000000000000000000000000000000000000000000000000000000815260040180806020018281038252602a815260200180612ebf602a913960400191505060405180910390fd5b6111e2600160008473ffffffffffffffffffffffffffffffffffffffff1673ffffffffffffffffffffffffffffffffffffffff168152602001908152602001600020611ec7565b9050919050565b606060078054600181600116156101000203166002900480601f0160208091040260200160405190810160405280929190818152602001828054600181600116156101000203166002900480156112815780601f1061125657610100808354040283529160200191611281565b820191906000526020600020905b81548152906001019060200180831161126457829003601f168201915b5050505050905090565b611293611841565b73ffffffffffffffffffffffffffffffffffffffff168273ffffffffffffffffffffffffffffffffffffffff161415611334576040517f08c379a00000000000000000000000000000000000000000000000000000000081526004018080602001828103825260198152602001807f4552433732313a20617070726f766520746f2063616c6c65720000000000000081525060200191505060405180910390fd5b8060056000611341611841565b73ffffffffffffffffffffffffffffffffffffffff1673ffffffffffffffffffffffffffffffffffffffff16815260200190815260200160002060008473ffffffffffffffffffffffffffffffffffffffff1673ffffffffffffffffffffffffffffffffffffffff16815260200190815260200160002060006101000a81548160ff0219169083151502179055508173ffffffffffffffffffffffffffffffffffffffff166113ee611841565b73ffffffffffffffffffffffffffffffffffffffff167f17307eab39ab6107e8899845ad3d59bd9653f200f220920489ca2b5937696c318360405180821515815260200191505060405180910390a35050565b61145261144c611841565b83611917565b6114a7576040517f08c379a00000000000000000000000000000000000000000000000000000000081526004018080602001828103825260318152602001806130056031913960400191505060405180910390fd5b6114b384848484611edc565b50505050565b60606114c482611824565b611519576040517f08c379a000000000000000000000000000000000000000000000000000000000815260040180806020018281038252602f815260200180612fb5602f913960400191505060405180910390fd5b6000600860008481526020019081526020016000208054600181600116156101000203166002900480601f0160208091040260200160405190810160405280929190818152602001828054600181600116156101000203166002900480156115c25780601f10611597576101008083540402835291602001916115c2565b820191906000526020600020905b8154815290600101906020018083116115a557829003601f168201915b5050505050905060006115d3611072565b90506000815114156115e9578192505050611785565b6000825111156116ba5780826040516020018083805190602001908083835b6020831061162b5780518252602082019150602081019050602083039250611608565b6001836020036101000a03801982511681845116808217855250505050505090500182805190602001908083835b6020831061167c5780518252602082019150602081019050602083039250611659565b6001836020036101000a0380198251168184511680821785525050505050509050019250505060405160208183030381529060405292505050611785565b806116c485611f4e565b6040516020018083805190602001908083835b602083106116fa57805182526020820191506020810190506020830392506116d7565b6001836020036101000a03801982511681845116808217855250505050505090500182805190602001908083835b6020831061174b5780518252602082019150602081019050602083039250611728565b6001836020036101000a03801982511681845116808217855250505050505090500192505050604051602081830303815290604052925050505b919050565b600a5481565b6000600560008473ffffffffffffffffffffffffffffffffffffffff1673ffffffffffffffffffffffffffffffffffffffff16815260200190815260200160002060008373ffffffffffffffffffffffffffffffffffffffff1673ffffffffffffffffffffffffffffffffffffffff16815260200190815260200160002060009054906101000a900460ff16905092915050565b600061183a82600261209590919063ffffffff16565b9050919050565b600033905090565b816004600083815260200190815260200160002060006101000a81548173ffffffffffffffffffffffffffffffffffffffff021916908373ffffffffffffffffffffffffffffffffffffffff160217905550808273ffffffffffffffffffffffffffffffffffffffff166118bc83610f5f565b73ffffffffffffffffffffffffffffffffffffffff167f8c5be1e5ebec7d5bd14f71427d1e84f3dd0314c0f7b2291e5b200ac8c7c3b92560405160405180910390a45050565b6000611910826000016120af565b9050919050565b600061192282611824565b611977576040517f08c379a000000000000000000000000000000000000000000000000000000000815260040180806020018281038252602c815260200180612e5b602c913960400191505060405180910390fd5b600061198283610f5f565b90508073ffffffffffffffffffffffffffffffffffffffff168473ffffffffffffffffffffffffffffffffffffffff1614806119f157508373ffffffffffffffffffffffffffffffffffffffff166119d984610b41565b73ffffffffffffffffffffffffffffffffffffffff16145b80611a025750611a018185611790565b5b91505092915050565b8273ffffffffffffffffffffffffffffffffffffffff16611a2b82610f5f565b73ffffffffffffffffffffffffffffffffffffffff1614611a97576040517f08c379a0000000000000000000000000000000000000000000000000000000008152600401808060200182810382526029815260200180612f8c6029913960400191505060405180910390fd5b600073ffffffffffffffffffffffffffffffffffffffff168273ffffffffffffffffffffffffffffffffffffffff161415611b1d576040517f08c379a0000000000000000000000000000000000000000000000000000000008152600401808060200182810382526024815260200180612e116024913960400191505060405180910390fd5b611b288383836120c0565b611b33600082611849565b611b8481600160008673ffffffffffffffffffffffffffffffffffffffff1673ffffffffffffffffffffffffffffffffffffffff1681526020019081526020016000206120c590919063ffffffff16565b50611bd681600160008573ffffffffffffffffffffffffffffffffffffffff1673ffffffffffffffffffffffffffffffffffffffff1681526020019081526020016000206120df90919063ffffffff16565b50611bed818360026120f99092919063ffffffff16565b50808273ffffffffffffffffffffffffffffffffffffffff168473ffffffffffffffffffffffffffffffffffffffff167fddf252ad1be2c89b69c2b068fc378daa952ba7f163c4a11628f55a4df523b3ef60405160405180910390a4505050565b6000611c5d836000018361212e565b60001c905092915050565b611c828282604051806020016040528060008152506121b1565b5050565b611c8f82611824565b611ce4576040517f08c379a000000000000000000000000000000000000000000000000000000000815260040180806020018281038252602c815260200180612f60602c913960400191505060405180910390fd5b80600860008481526020019081526020016000209080519060200190611d0b929190612d11565b505050565b611e788282604051602401808060200180602001838103835285818151815260200191508051906020019080838360005b83811015611d5c578082015181840152602081019050611d41565b50505050905090810190601f168015611d895780820380516001836020036101000a031916815260200191505b50838103825284818151815260200191508051906020019080838360005b83811015611dc2578082015181840152602081019050611da7565b50505050905090810190601f168015611def5780820380516001836020036101000a031916815260200191505b509450505050506040516020818303038152906040527f4b5c4277000000000000000000000000000000000000000000000000000000007bffffffffffffffffffffffffffffffffffffffffffffffffffffffff19166020820180517bffffffffffffffffffffffffffffffffffffffffffffffffffffffff8381831617835250505050612222565b5050565b600080600080611e8f866000018661224b565b915091508160001c8160001c9350935050509250929050565b6000611ebb846000018460001b846122e4565b60001c90509392505050565b6000611ed5826000016123da565b9050919050565b611ee7848484611a0b565b611ef3848484846123eb565b611f48576040517f08c379a0000000000000000000000000000000000000000000000000000000008152600401808060200182810382526032815260200180612ddf6032913960400191505060405180910390fd5b50505050565b60606000821415611f96576040518060400160405280600181526020017f30000000000000000000000000000000000000000000000000000000000000008152509050612090565b600082905060005b60008214611fc0578080600101915050600a8281611fb857fe5b049150611f9e565b60008167ffffffffffffffff81118015611fd957600080fd5b506040519080825280601f01601f19166020018201604052801561200c5781602001600182028036833780820191505090505b50905060006001830390508593505b6000841461208857600a848161202d57fe5b0660300160f81b8282806001900393508151811061204757fe5b60200101907effffffffffffffffffffffffffffffffffffffffffffffffffffffffffffff1916908160001a905350600a848161208057fe5b04935061201b565b819450505050505b919050565b60006120a7836000018360001b612604565b905092915050565b600081600001805490509050919050565b505050565b60006120d7836000018360001b612627565b905092915050565b60006120f1836000018360001b61270f565b905092915050565b6000612125846000018460001b8473ffffffffffffffffffffffffffffffffffffffff1660001b61277f565b90509392505050565b60008183600001805490501161218f576040517f08c379a0000000000000000000000000000000000000000000000000000000008152600401808060200182810382526022815260200180612dbd6022913960400191505060405180910390fd5b82600001828154811061219e57fe5b9060005260206000200154905092915050565b6121bb838361285b565b6121c860008484846123eb565b61221d576040517f08c379a0000000000000000000000000000000000000000000000000000000008152600401808060200182810382526032815260200180612ddf6032913960400191505060405180910390fd5b505050565b60008151905060006a636f6e736f6c652e6c6f679050602083016000808483855afa5050505050565b600080828460000180549050116122ad576040517f08c379a0000000000000000000000000000000000000000000000000000000008152600401808060200182810382526022815260200180612f126022913960400191505060405180910390fd5b60008460000184815481106122be57fe5b906000526020600020906002020190508060000154816001015492509250509250929050565b600080846001016000858152602001908152602001600020549050600081141583906123ab576040517f08c379a00000000000000000000000000000000000000000000000000000000081526004018080602001828103825283818151815260200191508051906020019080838360005b83811015612370578082015181840152602081019050612355565b50505050905090810190601f16801561239d5780820380516001836020036101000a031916815260200191505b509250505060405180910390fd5b508460000160018203815481106123be57fe5b9060005260206000209060020201600101549150509392505050565b600081600001805490509050919050565b600061240c8473ffffffffffffffffffffffffffffffffffffffff16612a4f565b61241957600190506125fc565b600061258363150b7a0260e01b61242e611841565b888787604051602401808573ffffffffffffffffffffffffffffffffffffffff1681526020018473ffffffffffffffffffffffffffffffffffffffff16815260200183815260200180602001828103825283818151815260200191508051906020019080838360005b838110156124b2578082015181840152602081019050612497565b50505050905090810190601f1680156124df5780820380516001836020036101000a031916815260200191505b5095505050505050604051602081830303815290604052907bffffffffffffffffffffffffffffffffffffffffffffffffffffffff19166020820180517bffffffffffffffffffffffffffffffffffffffffffffffffffffffff8381831617835250505050604051806060016040528060328152602001612ddf603291398773ffffffffffffffffffffffffffffffffffffffff16612a629092919063ffffffff16565b9050600081806020019051602081101561259c57600080fd5b8101908080519060200190929190505050905063150b7a0260e01b7bffffffffffffffffffffffffffffffffffffffffffffffffffffffff1916817bffffffffffffffffffffffffffffffffffffffffffffffffffffffff191614925050505b949350505050565b600080836001016000848152602001908152602001600020541415905092915050565b60008083600101600084815260200190815260200160002054905060008114612703576000600182039050600060018660000180549050039050600086600001828154811061267257fe5b906000526020600020015490508087600001848154811061268f57fe5b90600052602060002001819055506001830187600101600083815260200190815260200160002081905550866000018054806126c757fe5b60019003818190600052602060002001600090559055866001016000878152602001908152602001600020600090556001945050505050612709565b60009150505b92915050565b600061271b8383612a7a565b612774578260000182908060018154018082558091505060019003906000526020600020016000909190919091505582600001805490508360010160008481526020019081526020016000208190555060019050612779565b600090505b92915050565b600080846001016000858152602001908152602001600020549050600081141561282657846000016040518060400160405280868152602001858152509080600181540180825580915050600190039060005260206000209060020201600090919091909150600082015181600001556020820151816001015550508460000180549050856001016000868152602001908152602001600020819055506001915050612854565b8285600001600183038154811061283957fe5b90600052602060002090600202016001018190555060009150505b9392505050565b600073ffffffffffffffffffffffffffffffffffffffff168273ffffffffffffffffffffffffffffffffffffffff1614156128fe576040517f08c379a00000000000000000000000000000000000000000000000000000000081526004018080602001828103825260208152602001807f4552433732313a206d696e7420746f20746865207a65726f206164647265737381525060200191505060405180910390fd5b61290781611824565b1561297a576040517f08c379a000000000000000000000000000000000000000000000000000000000815260040180806020018281038252601c8152602001807f4552433732313a20746f6b656e20616c7265616479206d696e7465640000000081525060200191505060405180910390fd5b612986600083836120c0565b6129d781600160008573ffffffffffffffffffffffffffffffffffffffff1673ffffffffffffffffffffffffffffffffffffffff1681526020019081526020016000206120df90919063ffffffff16565b506129ee818360026120f99092919063ffffffff16565b50808273ffffffffffffffffffffffffffffffffffffffff16600073ffffffffffffffffffffffffffffffffffffffff167fddf252ad1be2c89b69c2b068fc378daa952ba7f163c4a11628f55a4df523b3ef60405160405180910390a45050565b600080823b905060008111915050919050565b6060612a718484600085612a9d565b90509392505050565b600080836001016000848152602001908152602001600020541415905092915050565b606082471015612af8576040517f08c379a0000000000000000000000000000000000000000000000000000000008152600401808060200182810382526026815260200180612e356026913960400191505060405180910390fd5b612b0185612a4f565b612b73576040517f08c379a000000000000000000000000000000000000000000000000000000000815260040180806020018281038252601d8152602001807f416464726573733a2063616c6c20746f206e6f6e2d636f6e747261637400000081525060200191505060405180910390fd5b6000808673ffffffffffffffffffffffffffffffffffffffff1685876040518082805190602001908083835b60208310612bc25780518252602082019150602081019050602083039250612b9f565b6001836020036101000a03801982511681845116808217855250505050505090500191505060006040518083038185875af1925050503d8060008114612c24576040519150601f19603f3d011682016040523d82523d6000602084013e612c29565b606091505b5091509150612c39828286612c45565b92505050949350505050565b60608315612c5557829050612d0a565b600083511115612c685782518084602001fd5b816040517f08c379a00000000000000000000000000000000000000000000000000000000081526004018080602001828103825283818151815260200191508051906020019080838360005b83811015612ccf578082015181840152602081019050612cb4565b50505050905090810190601f168015612cfc5780820380516001836020036101000a031916815260200191505b509250505060405180910390fd5b9392505050565b828054600181600116156101000203166002900490600052602060002090601f016020900481019282612d475760008555612d8e565b82601f10612d6057805160ff1916838001178555612d8e565b82800160010185558215612d8e579182015b82811115612d8d578251825591602001919060010190612d72565b5b509050612d9b9190612d9f565b5090565b5b80821115612db8576000816000905550600101612da0565b509056fe456e756d657261626c655365743a20696e646578206f7574206f6620626f756e64734552433732313a207472616e7366657220746f206e6f6e20455243373231526563656976657220696d706c656d656e7465724552433732313a207472616e7366657220746f20746865207a65726f2061646472657373416464726573733a20696e73756666696369656e742062616c616e636520666f722063616c6c4552433732313a206f70657261746f7220717565727920666f72206e6f6e6578697374656e7420746f6b656e4552433732313a20617070726f76652063616c6c6572206973206e6f74206f776e6572206e6f7220617070726f76656420666f7220616c6c4552433732313a2062616c616e636520717565727920666f7220746865207a65726f20616464726573734552433732313a206f776e657220717565727920666f72206e6f6e6578697374656e7420746f6b656e456e756d657261626c654d61703a20696e646578206f7574206f6620626f756e64734552433732313a20617070726f76656420717565727920666f72206e6f6e6578697374656e7420746f6b656e4552433732314d657461646174613a2055524920736574206f66206e6f6e6578697374656e7420746f6b656e4552433732313a207472616e73666572206f6620746f6b656e2074686174206973206e6f74206f776e4552433732314d657461646174613a2055524920717565727920666f72206e6f6e6578697374656e7420746f6b656e4552433732313a20617070726f76616c20746f2063757272656e74206f776e65724552433732313a207472616e736665722063616c6c6572206973206e6f74206f776e6572206e6f7220617070726f766564a2646970667358221220386bfcc37999f5e2d3e30967ea0a49a8a7f37ec1c922f7ca0ea3c6d3910741d264736f6c63430007060033",
  "linkReferences": {},
  "deployedLinkReferences": {}
}