{
  "_format": "hh-sol-artifact-1",
  "contractName": "MyCryptoLions",
  "sourceName": "contracts/MyCryptoLions.sol",
  "abi": [
    {
      "inputs": [
        {
          "internalType": "string",
          "name": "name",
          "type": "string"
        },
        {
          "internalType": "string",
          "name": "symbol",
          "type": "string"
        }
      ],
      "stateMutability": "nonpayable",
      "type": "constructor"
    },
    {
      "anonymous": false,
      "inputs": [
        {
          "indexed": true,
          "internalType": "address",
          "name": "owner",
          "type": "address"
        },
        {
          "indexed": true,
          "internalType": "address",
          "name": "approved",
          "type": "address"
        },
        {
          "indexed": true,
          "internalType": "uint256",
          "name": "tokenId",
          "type": "uint256"
        }
      ],
      "name": "Approval",
      "type": "event"
    },
    {
      "anonymous": false,
      "inputs": [
        {
          "indexed": true,
          "internalType": "address",
          "name": "owner",
          "type": "address"
        },
        {
          "indexed": true,
          "internalType": "address",
          "name": "operator",
          "type": "address"
        },
        {
          "indexed": false,
          "internalType": "bool",
          "name": "approved",
          "type": "bool"
        }
      ],
      "name": "ApprovalForAll",
      "type": "event"
    },
    {
      "anonymous": false,
      "inputs": [
        {
          "indexed": true,
          "internalType": "address",
          "name": "previousOwner",
          "type": "address"
        },
        {
          "indexed": true,
          "internalType": "address",
          "name": "newOwner",
          "type": "address"
        }
      ],
      "name": "OwnershipTransferred",
      "type": "event"
    },
    {
      "anonymous": false,
      "inputs": [
        {
          "indexed": true,
          "internalType": "address",
          "name": "from",
          "type": "address"
        },
        {
          "indexed": true,
          "internalType": "address",
          "name": "to",
          "type": "address"
        },
        {
          "indexed": true,
          "internalType": "uint256",
          "name": "tokenId",
          "type": "uint256"
        }
      ],
      "name": "Transfer",
      "type": "event"
    },
    {
      "inputs": [
        {
          "internalType": "address",
          "name": "to",
          "type": "address"
        },
        {
          "internalType": "uint256",
          "name": "tokenId",
          "type": "uint256"
        }
      ],
      "name": "approve",
      "outputs": [],
      "stateMutability": "nonpayable",
      "type": "function"
    },
    {
      "inputs": [
        {
          "internalType": "address",
          "name": "owner",
          "type": "address"
        }
      ],
      "name": "balanceOf",
      "outputs": [
        {
          "internalType": "uint256",
          "name": "",
          "type": "uint256"
        }
      ],
      "stateMutability": "view",
      "type": "function"
    },
    {
      "inputs": [],
      "name": "baseURI",
      "outputs": [
        {
          "internalType": "string",
          "name": "",
          "type": "string"
        }
      ],
      "stateMutability": "view",
      "type": "function"
    },
    {
      "inputs": [
        {
          "internalType": "string",
          "name": "tokenURI",
          "type": "string"
        }
      ],
      "name": "createCollectible",
      "outputs": [
        {
          "internalType": "uint256",
          "name": "",
          "type": "uint256"
        }
      ],
      "stateMutability": "nonpayable",
      "type": "function"
    },
    {
      "inputs": [
        {
          "internalType": "uint256",
          "name": "tokenId",
          "type": "uint256"
        }
      ],
      "name": "getApproved",
      "outputs": [
        {
          "internalType": "address",
          "name": "",
          "type": "address"
        }
      ],
      "stateMutability": "view",
      "type": "function"
    },
    {
      "inputs": [
        {
          "internalType": "address",
          "name": "owner",
          "type": "address"
        },
        {
          "internalType": "address",
          "name": "operator",
          "type": "address"
        }
      ],
      "name": "isApprovedForAll",
      "outputs": [
        {
          "internalType": "bool",
          "name": "",
          "type": "bool"
        }
      ],
      "stateMutability": "view",
      "type": "function"
    },
    {
      "inputs": [],
      "name": "name",
      "outputs": [
        {
          "internalType": "string",
          "name": "",
          "type": "string"
        }
      ],
      "stateMutability": "view",
      "type": "function"
    },
    {
      "inputs": [
        {
          "internalType": "uint256",
          "name": "",
          "type": "uint256"
        }
      ],
      "name": "newTokenIdToSender",
      "outputs": [
        {
          "internalType": "address",
          "name": "tokenOwner",
          "type": "address"
        },
        {
          "internalType": "string",
          "name": "tokenURI",
          "type": "string"
        }
      ],
      "stateMutability": "view",
      "type": "function"
    },
    {
      "inputs": [],
      "name": "owner",
      "outputs": [
        {
          "internalType": "address",
          "name": "",
          "type": "address"
        }
      ],
      "stateMutability": "view",
      "type": "function"
    },
    {
      "inputs": [
        {
          "internalType": "uint256",
          "name": "tokenId",
          "type": "uint256"
        }
      ],
      "name": "ownerOf",
      "outputs": [
        {
          "internalType": "address",
          "name": "",
          "type": "address"
        }
      ],
      "stateMutability": "view",
      "type": "function"
    },
    {
      "inputs": [],
      "name": "renounceOwnership",
      "outputs": [],
      "stateMutability": "nonpayable",
      "type": "function"
    },
    {
      "inputs": [
        {
          "internalType": "address",
          "name": "from",
          "type": "address"
        },
        {
          "internalType": "address",
          "name": "to",
          "type": "address"
        },
        {
          "internalType": "uint256",
          "name": "tokenId",
          "type": "uint256"
        }
      ],
      "name": "safeTransferFrom",
      "outputs": [],
      "stateMutability": "nonpayable",
      "type": "function"
    },
    {
      "inputs": [
        {
          "internalType": "address",
          "name": "from",
          "type": "address"
        },
        {
          "internalType": "address",
          "name": "to",
          "type": "address"
        },
        {
          "internalType": "uint256",
          "name": "tokenId",
          "type": "uint256"
        },
        {
          "internalType": "bytes",
          "name": "_data",
          "type": "bytes"
        }
      ],
      "name": "safeTransferFrom",
      "outputs": [],
      "stateMutability": "nonpayable",
      "type": "function"
    },
    {
      "inputs": [
        {
          "internalType": "address",
          "name": "operator",
          "type": "address"
        },
        {
          "internalType": "bool",
          "name": "approved",
          "type": "bool"
        }
      ],
      "name": "setApprovalForAll",
      "outputs": [],
      "stateMutability": "nonpayable",
      "type": "function"
    },
    {
      "inputs": [
        {
          "internalType": "bytes4",
          "name": "interfaceId",
          "type": "bytes4"
        }
      ],
      "name": "supportsInterface",
      "outputs": [
        {
          "internalType": "bool",
          "name": "",
          "type": "bool"
        }
      ],
      "stateMutability": "view",
      "type": "function"
    },
    {
      "inputs": [],
      "name": "symbol",
      "outputs": [
        {
          "internalType": "string",
          "name": "",
          "type": "string"
        }
      ],
      "stateMutability": "view",
      "type": "function"
    },
    {
      "inputs": [
        {
          "internalType": "uint256",
          "name": "index",
          "type": "uint256"
        }
      ],
      "name": "tokenByIndex",
      "outputs": [
        {
          "internalType": "uint256",
          "name": "",
          "type": "uint256"
        }
      ],
      "stateMutability": "view",
      "type": "function"
    },
    {
      "inputs": [],
      "name": "tokenCounter",
      "outputs": [
        {
          "internalType": "uint256",
          "name": "",
          "type": "uint256"
        }
      ],
      "stateMutability": "view",
      "type": "function"
    },
    {
      "inputs": [
        {
          "internalType": "address",
          "name": "owner",
          "type": "address"
        },
        {
          "internalType": "uint256",
          "name": "index",
          "type": "uint256"
        }
      ],
      "name": "tokenOfOwnerByIndex",
      "outputs": [
        {
          "internalType": "uint256",
          "name": "",
          "type": "uint256"
        }
      ],
      "stateMutability": "view",
      "type": "function"
    },
    {
      "inputs": [
        {
          "internalType": "uint256",
          "name": "tokenId",
          "type": "uint256"
        }
      ],
      "name": "tokenURI",
      "outputs": [
        {
          "internalType": "string",
          "name": "",
          "type": "string"
        }
      ],
      "stateMutability": "view",
      "type": "function"
    },
    {
      "inputs": [],
      "name": "totalSupply",
      "outputs": [
        {
          "internalType": "uint256",
          "name": "",
          "type": "uint256"
        }
      ],
      "stateMutability": "view",
      "type": "function"
    },
    {
      "inputs": [
        {
          "internalType": "address",
          "name": "from",
          "type": "address"
        },
        {
          "internalType": "address",
          "name": "to",
          "type": "address"
        },
        {
          "internalType": "uint256",
          "name": "tokenId",
          "type": "uint256"
        }
      ],
      "name": "transferFrom",
      "outputs": [],
      "stateMutability": "nonpayable",
      "type": "function"
    },
    {
      "inputs": [
        {
          "internalType": "address",
          "name": "newOwner",
          "type": "address"
        }
      ],
      "name": "transferOwnership",
      "outputs": [],
      "stateMutability": "nonpayable",
      "type": "function"
    }
  ],
  "bytecode": "0x60806040523480156200001157600080fd5b506040516200388238038062003882833981810160405260408110156200003757600080fd5b81019080805160405193929190846401000000008211156200005857600080fd5b838201915060208201858111156200006f57600080fd5b82518660018202830111640100000000821117156200008d57600080fd5b8083526020830192505050908051906020019080838360005b83811015620000c3578082015181840152602081019050620000a6565b50505050905090810190601f168015620000f15780820380516001836020036101000a031916815260200191505b50604052602001805160405193929190846401000000008211156200011557600080fd5b838201915060208201858111156200012c57600080fd5b82518660018202830111640100000000821117156200014a57600080fd5b8083526020830192505050908051906020019080838360005b838110156200018057808201518184015260208101905062000163565b50505050905090810190601f168015620001ae5780820380516001836020036101000a031916815260200191505b506040525050508181620001cf6301ffc9a760e01b6200030c60201b60201c565b8160069080519060200190620001e79291906200041d565b508060079080519060200190620002009291906200041d565b50620002196380ac58cd60e01b6200030c60201b60201c565b62000231635b5e139f60e01b6200030c60201b60201c565b6200024963780e9d6360e01b6200030c60201b60201c565b505060006200025d6200041560201b60201c565b905080600a60006101000a81548173ffffffffffffffffffffffffffffffffffffffff021916908373ffffffffffffffffffffffffffffffffffffffff1602179055508073ffffffffffffffffffffffffffffffffffffffff16600073ffffffffffffffffffffffffffffffffffffffff167f8be0079c531659141344cd1fd0a4f28419497f9722a3daafe3b4186f6b6457e060405160405180910390a3506000600b819055505050620004d3565b63ffffffff60e01b817bffffffffffffffffffffffffffffffffffffffffffffffffffffffff19161415620003a9576040517f08c379a000000000000000000000000000000000000000000000000000000000815260040180806020018281038252601c8152602001807f4552433136353a20696e76616c696420696e746572666163652069640000000081525060200191505060405180910390fd5b6001600080837bffffffffffffffffffffffffffffffffffffffffffffffffffffffff19167bffffffffffffffffffffffffffffffffffffffffffffffffffffffff1916815260200190815260200160002060006101000a81548160ff02191690831515021790555050565b600033905090565b828054600181600116156101000203166002900490600052602060002090601f016020900481019282620004555760008555620004a1565b82601f106200047057805160ff1916838001178555620004a1565b82800160010185558215620004a1579182015b82811115620004a057825182559160200191906001019062000483565b5b509050620004b09190620004b4565b5090565b5b80821115620004cf576000816000905550600101620004b5565b5090565b61339f80620004e36000396000f3fe608060405234801561001057600080fd5b506004361061014d5760003560e01c806363ceba8d116100c3578063a22cb4651161007c578063a22cb46514610803578063b88d4fde14610853578063c87b56dd14610958578063d082e381146109ff578063e985e9c514610a1d578063f2fde38b14610a975761014d565b806363ceba8d146105a35780636c0360eb1461066757806370a08231146106ea578063715018a6146107425780638da5cb5b1461074c57806395d89b41146107805761014d565b806323b872dd1161011557806323b872dd146102fc5780632f745c591461036a57806331f1f3c3146103cc57806342842e0e1461049b5780634f6ccce7146105095780636352211e1461054b5761014d565b806301ffc9a71461015257806306fdde03146101b5578063081812fc14610238578063095ea7b31461029057806318160ddd146102de575b600080fd5b61019d6004803603602081101561016857600080fd5b8101908080357bffffffffffffffffffffffffffffffffffffffffffffffffffffffff19169060200190929190505050610adb565b60405180821515815260200191505060405180910390f35b6101bd610b42565b6040518080602001828103825283818151815260200191508051906020019080838360005b838110156101fd5780820151818401526020810190506101e2565b50505050905090810190601f16801561022a5780820380516001836020036101000a031916815260200191505b509250505060405180910390f35b6102646004803603602081101561024e57600080fd5b8101908080359060200190929190505050610be4565b604051808273ffffffffffffffffffffffffffffffffffffffff16815260200191505060405180910390f35b6102dc600480360360408110156102a657600080fd5b81019080803573ffffffffffffffffffffffffffffffffffffffff16906020019092919080359060200190929190505050610c7f565b005b6102e6610dc3565b6040518082815260200191505060405180910390f35b6103686004803603606081101561031257600080fd5b81019080803573ffffffffffffffffffffffffffffffffffffffff169060200190929190803573ffffffffffffffffffffffffffffffffffffffff16906020019092919080359060200190929190505050610dd4565b005b6103b66004803603604081101561038057600080fd5b81019080803573ffffffffffffffffffffffffffffffffffffffff16906020019092919080359060200190929190505050610e4a565b6040518082815260200191505060405180910390f35b610485600480360360208110156103e257600080fd5b81019080803590602001906401000000008111156103ff57600080fd5b82018360208201111561041157600080fd5b8035906020019184600183028401116401000000008311171561043357600080fd5b91908080601f016020809104026020016040519081016040528093929190818152602001838380828437600081840152601f19601f820116905080830192505050505050509192919290505050610ea5565b6040518082815260200191505060405180910390f35b610507600480360360608110156104b157600080fd5b81019080803573ffffffffffffffffffffffffffffffffffffffff169060200190929190803573ffffffffffffffffffffffffffffffffffffffff16906020019092919080359060200190929190505050611030565b005b6105356004803603602081101561051f57600080fd5b8101908080359060200190929190505050611050565b6040518082815260200191505060405180910390f35b6105776004803603602081101561056157600080fd5b8101908080359060200190929190505050611073565b604051808273ffffffffffffffffffffffffffffffffffffffff16815260200191505060405180910390f35b6105cf600480360360208110156105b957600080fd5b81019080803590602001909291905050506110aa565b604051808373ffffffffffffffffffffffffffffffffffffffff16815260200180602001828103825283818151815260200191508051906020019080838360005b8381101561062b578082015181840152602081019050610610565b50505050905090810190601f1680156106585780820380516001836020036101000a031916815260200191505b50935050505060405180910390f35b61066f611186565b6040518080602001828103825283818151815260200191508051906020019080838360005b838110156106af578082015181840152602081019050610694565b50505050905090810190601f1680156106dc5780820380516001836020036101000a031916815260200191505b509250505060405180910390f35b61072c6004803603602081101561070057600080fd5b81019080803573ffffffffffffffffffffffffffffffffffffffff169060200190929190505050611228565b6040518082815260200191505060405180910390f35b61074a6112fd565b005b61075461146d565b604051808273ffffffffffffffffffffffffffffffffffffffff16815260200191505060405180910390f35b610788611497565b6040518080602001828103825283818151815260200191508051906020019080838360005b838110156107c85780820151818401526020810190506107ad565b50505050905090810190601f1680156107f55780820380516001836020036101000a031916815260200191505b509250505060405180910390f35b6108516004803603604081101561081957600080fd5b81019080803573ffffffffffffffffffffffffffffffffffffffff169060200190929190803515159060200190929190505050611539565b005b6109566004803603608081101561086957600080fd5b81019080803573ffffffffffffffffffffffffffffffffffffffff169060200190929190803573ffffffffffffffffffffffffffffffffffffffff16906020019092919080359060200190929190803590602001906401000000008111156108d057600080fd5b8201836020820111156108e257600080fd5b8035906020019184600183028401116401000000008311171561090457600080fd5b91908080601f016020809104026020016040519081016040528093929190818152602001838380828437600081840152601f19601f8201169050808301925050505050505091929192905050506116ef565b005b6109846004803603602081101561096e57600080fd5b8101908080359060200190929190505050611767565b6040518080602001828103825283818151815260200191508051906020019080838360005b838110156109c45780820151818401526020810190506109a9565b50505050905090810190601f1680156109f15780820380516001836020036101000a031916815260200191505b509250505060405180910390f35b610a07611a38565b6040518082815260200191505060405180910390f35b610a7f60048036036040811015610a3357600080fd5b81019080803573ffffffffffffffffffffffffffffffffffffffff169060200190929190803573ffffffffffffffffffffffffffffffffffffffff169060200190929190505050611a3e565b60405180821515815260200191505060405180910390f35b610ad960048036036020811015610aad57600080fd5b81019080803573ffffffffffffffffffffffffffffffffffffffff169060200190929190505050611ad2565b005b6000806000837bffffffffffffffffffffffffffffffffffffffffffffffffffffffff19167bffffffffffffffffffffffffffffffffffffffffffffffffffffffff1916815260200190815260200160002060009054906101000a900460ff169050919050565b606060068054600181600116156101000203166002900480601f016020809104026020016040519081016040528092919081815260200182805460018160011615610100020316600290048015610bda5780601f10610baf57610100808354040283529160200191610bda565b820191906000526020600020905b815481529060010190602001808311610bbd57829003601f168201915b5050505050905090565b6000610bef82611cc7565b610c44576040517f08c379a000000000000000000000000000000000000000000000000000000000815260040180806020018281038252602c815260200180613268602c913960400191505060405180910390fd5b6004600083815260200190815260200160002060009054906101000a900473ffffffffffffffffffffffffffffffffffffffff169050919050565b6000610c8a82611073565b90508073ffffffffffffffffffffffffffffffffffffffff168373ffffffffffffffffffffffffffffffffffffffff161415610d11576040517f08c379a00000000000000000000000000000000000000000000000000000000081526004018080602001828103825260218152602001806133186021913960400191505060405180910390fd5b8073ffffffffffffffffffffffffffffffffffffffff16610d30611ce4565b73ffffffffffffffffffffffffffffffffffffffff161480610d5f5750610d5e81610d59611ce4565b611a3e565b5b610db4576040517f08c379a00000000000000000000000000000000000000000000000000000000081526004018080602001828103825260388152602001806131bb6038913960400191505060405180910390fd5b610dbe8383611cec565b505050565b6000610dcf6002611da5565b905090565b610de5610ddf611ce4565b82611dba565b610e3a576040517f08c379a00000000000000000000000000000000000000000000000000000000081526004018080602001828103825260318152602001806133396031913960400191505060405180910390fd5b610e45838383611eae565b505050565b6000610e9d82600160008673ffffffffffffffffffffffffffffffffffffffff1673ffffffffffffffffffffffffffffffffffffffff1681526020019081526020016000206120f190919063ffffffff16565b905092915050565b6000610eaf611ce4565b73ffffffffffffffffffffffffffffffffffffffff16610ecd61146d565b73ffffffffffffffffffffffffffffffffffffffff1614610f56576040517f08c379a00000000000000000000000000000000000000000000000000000000081526004018080602001828103825260208152602001807f4f776e61626c653a2063616c6c6572206973206e6f7420746865206f776e657281525060200191505060405180910390fd5b6000600b549050610f67338261210b565b610f718184612129565b60405180604001604052803373ffffffffffffffffffffffffffffffffffffffff16815260200184815250600c600083815260200190815260200160002060008201518160000160006101000a81548173ffffffffffffffffffffffffffffffffffffffff021916908373ffffffffffffffffffffffffffffffffffffffff160217905550602082015181600101908051906020019061101292919061301f565b509050506001600b6000828254019250508190555080915050919050565b61104b838383604051806020016040528060008152506116ef565b505050565b6000806110678360026121b390919063ffffffff16565b50905080915050919050565b60006110a38260405180606001604052806029815260200161321d6029913960026121df9092919063ffffffff16565b9050919050565b600c6020528060005260406000206000915090508060000160009054906101000a900473ffffffffffffffffffffffffffffffffffffffff1690806001018054600181600116156101000203166002900480601f01602080910402602001604051908101604052809291908181526020018280546001816001161561010002031660029004801561117c5780601f106111515761010080835404028352916020019161117c565b820191906000526020600020905b81548152906001019060200180831161115f57829003601f168201915b5050505050905082565b606060098054600181600116156101000203166002900480601f01602080910402602001604051908101604052809291908181526020018280546001816001161561010002031660029004801561121e5780601f106111f35761010080835404028352916020019161121e565b820191906000526020600020905b81548152906001019060200180831161120157829003601f168201915b5050505050905090565b60008073ffffffffffffffffffffffffffffffffffffffff168273ffffffffffffffffffffffffffffffffffffffff1614156112af576040517f08c379a000000000000000000000000000000000000000000000000000000000815260040180806020018281038252602a8152602001806131f3602a913960400191505060405180910390fd5b6112f6600160008473ffffffffffffffffffffffffffffffffffffffff1673ffffffffffffffffffffffffffffffffffffffff1681526020019081526020016000206121fe565b9050919050565b611305611ce4565b73ffffffffffffffffffffffffffffffffffffffff1661132361146d565b73ffffffffffffffffffffffffffffffffffffffff16146113ac576040517f08c379a00000000000000000000000000000000000000000000000000000000081526004018080602001828103825260208152602001807f4f776e61626c653a2063616c6c6572206973206e6f7420746865206f776e657281525060200191505060405180910390fd5b600073ffffffffffffffffffffffffffffffffffffffff16600a60009054906101000a900473ffffffffffffffffffffffffffffffffffffffff1673ffffffffffffffffffffffffffffffffffffffff167f8be0079c531659141344cd1fd0a4f28419497f9722a3daafe3b4186f6b6457e060405160405180910390a36000600a60006101000a81548173ffffffffffffffffffffffffffffffffffffffff021916908373ffffffffffffffffffffffffffffffffffffffff160217905550565b6000600a60009054906101000a900473ffffffffffffffffffffffffffffffffffffffff16905090565b606060078054600181600116156101000203166002900480601f01602080910402602001604051908101604052809291908181526020018280546001816001161561010002031660029004801561152f5780601f106115045761010080835404028352916020019161152f565b820191906000526020600020905b81548152906001019060200180831161151257829003601f168201915b5050505050905090565b611541611ce4565b73ffffffffffffffffffffffffffffffffffffffff168273ffffffffffffffffffffffffffffffffffffffff1614156115e2576040517f08c379a00000000000000000000000000000000000000000000000000000000081526004018080602001828103825260198152602001807f4552433732313a20617070726f766520746f2063616c6c65720000000000000081525060200191505060405180910390fd5b80600560006115ef611ce4565b73ffffffffffffffffffffffffffffffffffffffff1673ffffffffffffffffffffffffffffffffffffffff16815260200190815260200160002060008473ffffffffffffffffffffffffffffffffffffffff1673ffffffffffffffffffffffffffffffffffffffff16815260200190815260200160002060006101000a81548160ff0219169083151502179055508173ffffffffffffffffffffffffffffffffffffffff1661169c611ce4565b73ffffffffffffffffffffffffffffffffffffffff167f17307eab39ab6107e8899845ad3d59bd9653f200f220920489ca2b5937696c318360405180821515815260200191505060405180910390a35050565b6117006116fa611ce4565b83611dba565b611755576040517f08c379a00000000000000000000000000000000000000000000000000000000081526004018080602001828103825260318152602001806133396031913960400191505060405180910390fd5b61176184848484612213565b50505050565b606061177282611cc7565b6117c7576040517f08c379a000000000000000000000000000000000000000000000000000000000815260040180806020018281038252602f8152602001806132e9602f913960400191505060405180910390fd5b6000600860008481526020019081526020016000208054600181600116156101000203166002900480601f0160208091040260200160405190810160405280929190818152602001828054600181600116156101000203166002900480156118705780601f1061184557610100808354040283529160200191611870565b820191906000526020600020905b81548152906001019060200180831161185357829003601f168201915b505050505090506000611881611186565b9050600081511415611897578192505050611a33565b6000825111156119685780826040516020018083805190602001908083835b602083106118d957805182526020820191506020810190506020830392506118b6565b6001836020036101000a03801982511681845116808217855250505050505090500182805190602001908083835b6020831061192a5780518252602082019150602081019050602083039250611907565b6001836020036101000a0380198251168184511680821785525050505050509050019250505060405160208183030381529060405292505050611a33565b8061197285612285565b6040516020018083805190602001908083835b602083106119a85780518252602082019150602081019050602083039250611985565b6001836020036101000a03801982511681845116808217855250505050505090500182805190602001908083835b602083106119f957805182526020820191506020810190506020830392506119d6565b6001836020036101000a03801982511681845116808217855250505050505090500192505050604051602081830303815290604052925050505b919050565b600b5481565b6000600560008473ffffffffffffffffffffffffffffffffffffffff1673ffffffffffffffffffffffffffffffffffffffff16815260200190815260200160002060008373ffffffffffffffffffffffffffffffffffffffff1673ffffffffffffffffffffffffffffffffffffffff16815260200190815260200160002060009054906101000a900460ff16905092915050565b611ada611ce4565b73ffffffffffffffffffffffffffffffffffffffff16611af861146d565b73ffffffffffffffffffffffffffffffffffffffff1614611b81576040517f08c379a00000000000000000000000000000000000000000000000000000000081526004018080602001828103825260208152602001807f4f776e61626c653a2063616c6c6572206973206e6f7420746865206f776e657281525060200191505060405180910390fd5b600073ffffffffffffffffffffffffffffffffffffffff168173ffffffffffffffffffffffffffffffffffffffff161415611c07576040517f08c379a000000000000000000000000000000000000000000000000000000000815260040180806020018281038252602681526020018061311f6026913960400191505060405180910390fd5b8073ffffffffffffffffffffffffffffffffffffffff16600a60009054906101000a900473ffffffffffffffffffffffffffffffffffffffff1673ffffffffffffffffffffffffffffffffffffffff167f8be0079c531659141344cd1fd0a4f28419497f9722a3daafe3b4186f6b6457e060405160405180910390a380600a60006101000a81548173ffffffffffffffffffffffffffffffffffffffff021916908373ffffffffffffffffffffffffffffffffffffffff16021790555050565b6000611cdd8260026123cc90919063ffffffff16565b9050919050565b600033905090565b816004600083815260200190815260200160002060006101000a81548173ffffffffffffffffffffffffffffffffffffffff021916908373ffffffffffffffffffffffffffffffffffffffff160217905550808273ffffffffffffffffffffffffffffffffffffffff16611d5f83611073565b73ffffffffffffffffffffffffffffffffffffffff167f8c5be1e5ebec7d5bd14f71427d1e84f3dd0314c0f7b2291e5b200ac8c7c3b92560405160405180910390a45050565b6000611db3826000016123e6565b9050919050565b6000611dc582611cc7565b611e1a576040517f08c379a000000000000000000000000000000000000000000000000000000000815260040180806020018281038252602c81526020018061318f602c913960400191505060405180910390fd5b6000611e2583611073565b90508073ffffffffffffffffffffffffffffffffffffffff168473ffffffffffffffffffffffffffffffffffffffff161480611e9457508373ffffffffffffffffffffffffffffffffffffffff16611e7c84610be4565b73ffffffffffffffffffffffffffffffffffffffff16145b80611ea55750611ea48185611a3e565b5b91505092915050565b8273ffffffffffffffffffffffffffffffffffffffff16611ece82611073565b73ffffffffffffffffffffffffffffffffffffffff1614611f3a576040517f08c379a00000000000000000000000000000000000000000000000000000000081526004018080602001828103825260298152602001806132c06029913960400191505060405180910390fd5b600073ffffffffffffffffffffffffffffffffffffffff168273ffffffffffffffffffffffffffffffffffffffff161415611fc0576040517f08c379a00000000000000000000000000000000000000000000000000000000081526004018080602001828103825260248152602001806131456024913960400191505060405180910390fd5b611fcb8383836123f7565b611fd6600082611cec565b61202781600160008673ffffffffffffffffffffffffffffffffffffffff1673ffffffffffffffffffffffffffffffffffffffff1681526020019081526020016000206123fc90919063ffffffff16565b5061207981600160008573ffffffffffffffffffffffffffffffffffffffff1673ffffffffffffffffffffffffffffffffffffffff16815260200190815260200160002061241690919063ffffffff16565b50612090818360026124309092919063ffffffff16565b50808273ffffffffffffffffffffffffffffffffffffffff168473ffffffffffffffffffffffffffffffffffffffff167fddf252ad1be2c89b69c2b068fc378daa952ba7f163c4a11628f55a4df523b3ef60405160405180910390a4505050565b60006121008360000183612465565b60001c905092915050565b6121258282604051806020016040528060008152506124e8565b5050565b61213282611cc7565b612187576040517f08c379a000000000000000000000000000000000000000000000000000000000815260040180806020018281038252602c815260200180613294602c913960400191505060405180910390fd5b806008600084815260200190815260200160002090805190602001906121ae92919061301f565b505050565b6000806000806121c68660000186612559565b915091508160001c8160001c9350935050509250929050565b60006121f2846000018460001b846125f2565b60001c90509392505050565b600061220c826000016126e8565b9050919050565b61221e848484611eae565b61222a848484846126f9565b61227f576040517f08c379a00000000000000000000000000000000000000000000000000000000081526004018080602001828103825260328152602001806130ed6032913960400191505060405180910390fd5b50505050565b606060008214156122cd576040518060400160405280600181526020017f300000000000000000000000000000000000000000000000000000000000000081525090506123c7565b600082905060005b600082146122f7578080600101915050600a82816122ef57fe5b0491506122d5565b60008167ffffffffffffffff8111801561231057600080fd5b506040519080825280601f01601f1916602001820160405280156123435781602001600182028036833780820191505090505b50905060006001830390508593505b600084146123bf57600a848161236457fe5b0660300160f81b8282806001900393508151811061237e57fe5b60200101907effffffffffffffffffffffffffffffffffffffffffffffffffffffffffffff1916908160001a905350600a84816123b757fe5b049350612352565b819450505050505b919050565b60006123de836000018360001b612912565b905092915050565b600081600001805490509050919050565b505050565b600061240e836000018360001b612935565b905092915050565b6000612428836000018360001b612a1d565b905092915050565b600061245c846000018460001b8473ffffffffffffffffffffffffffffffffffffffff1660001b612a8d565b90509392505050565b6000818360000180549050116124c6576040517f08c379a00000000000000000000000000000000000000000000000000000000081526004018080602001828103825260228152602001806130cb6022913960400191505060405180910390fd5b8260000182815481106124d557fe5b9060005260206000200154905092915050565b6124f28383612b69565b6124ff60008484846126f9565b612554576040517f08c379a00000000000000000000000000000000000000000000000000000000081526004018080602001828103825260328152602001806130ed6032913960400191505060405180910390fd5b505050565b600080828460000180549050116125bb576040517f08c379a00000000000000000000000000000000000000000000000000000000081526004018080602001828103825260228152602001806132466022913960400191505060405180910390fd5b60008460000184815481106125cc57fe5b906000526020600020906002020190508060000154816001015492509250509250929050565b600080846001016000858152602001908152602001600020549050600081141583906126b9576040517f08c379a00000000000000000000000000000000000000000000000000000000081526004018080602001828103825283818151815260200191508051906020019080838360005b8381101561267e578082015181840152602081019050612663565b50505050905090810190601f1680156126ab5780820380516001836020036101000a031916815260200191505b509250505060405180910390fd5b508460000160018203815481106126cc57fe5b9060005260206000209060020201600101549150509392505050565b600081600001805490509050919050565b600061271a8473ffffffffffffffffffffffffffffffffffffffff16612d5d565b612727576001905061290a565b600061289163150b7a0260e01b61273c611ce4565b888787604051602401808573ffffffffffffffffffffffffffffffffffffffff1681526020018473ffffffffffffffffffffffffffffffffffffffff16815260200183815260200180602001828103825283818151815260200191508051906020019080838360005b838110156127c05780820151818401526020810190506127a5565b50505050905090810190601f1680156127ed5780820380516001836020036101000a031916815260200191505b5095505050505050604051602081830303815290604052907bffffffffffffffffffffffffffffffffffffffffffffffffffffffff19166020820180517bffffffffffffffffffffffffffffffffffffffffffffffffffffffff83818316178352505050506040518060600160405280603281526020016130ed603291398773ffffffffffffffffffffffffffffffffffffffff16612d709092919063ffffffff16565b905060008180602001905160208110156128aa57600080fd5b8101908080519060200190929190505050905063150b7a0260e01b7bffffffffffffffffffffffffffffffffffffffffffffffffffffffff1916817bffffffffffffffffffffffffffffffffffffffffffffffffffffffff191614925050505b949350505050565b600080836001016000848152602001908152602001600020541415905092915050565b60008083600101600084815260200190815260200160002054905060008114612a11576000600182039050600060018660000180549050039050600086600001828154811061298057fe5b906000526020600020015490508087600001848154811061299d57fe5b90600052602060002001819055506001830187600101600083815260200190815260200160002081905550866000018054806129d557fe5b60019003818190600052602060002001600090559055866001016000878152602001908152602001600020600090556001945050505050612a17565b60009150505b92915050565b6000612a298383612d88565b612a82578260000182908060018154018082558091505060019003906000526020600020016000909190919091505582600001805490508360010160008481526020019081526020016000208190555060019050612a87565b600090505b92915050565b6000808460010160008581526020019081526020016000205490506000811415612b3457846000016040518060400160405280868152602001858152509080600181540180825580915050600190039060005260206000209060020201600090919091909150600082015181600001556020820151816001015550508460000180549050856001016000868152602001908152602001600020819055506001915050612b62565b82856000016001830381548110612b4757fe5b90600052602060002090600202016001018190555060009150505b9392505050565b600073ffffffffffffffffffffffffffffffffffffffff168273ffffffffffffffffffffffffffffffffffffffff161415612c0c576040517f08c379a00000000000000000000000000000000000000000000000000000000081526004018080602001828103825260208152602001807f4552433732313a206d696e7420746f20746865207a65726f206164647265737381525060200191505060405180910390fd5b612c1581611cc7565b15612c88576040517f08c379a000000000000000000000000000000000000000000000000000000000815260040180806020018281038252601c8152602001807f4552433732313a20746f6b656e20616c7265616479206d696e7465640000000081525060200191505060405180910390fd5b612c94600083836123f7565b612ce581600160008573ffffffffffffffffffffffffffffffffffffffff1673ffffffffffffffffffffffffffffffffffffffff16815260200190815260200160002061241690919063ffffffff16565b50612cfc818360026124309092919063ffffffff16565b50808273ffffffffffffffffffffffffffffffffffffffff16600073ffffffffffffffffffffffffffffffffffffffff167fddf252ad1be2c89b69c2b068fc378daa952ba7f163c4a11628f55a4df523b3ef60405160405180910390a45050565b600080823b905060008111915050919050565b6060612d7f8484600085612dab565b90509392505050565b600080836001016000848152602001908152602001600020541415905092915050565b606082471015612e06576040517f08c379a00000000000000000000000000000000000000000000000000000000081526004018080602001828103825260268152602001806131696026913960400191505060405180910390fd5b612e0f85612d5d565b612e81576040517f08c379a000000000000000000000000000000000000000000000000000000000815260040180806020018281038252601d8152602001807f416464726573733a2063616c6c20746f206e6f6e2d636f6e747261637400000081525060200191505060405180910390fd5b6000808673ffffffffffffffffffffffffffffffffffffffff1685876040518082805190602001908083835b60208310612ed05780518252602082019150602081019050602083039250612ead565b6001836020036101000a03801982511681845116808217855250505050505090500191505060006040518083038185875af1925050503d8060008114612f32576040519150601f19603f3d011682016040523d82523d6000602084013e612f37565b606091505b5091509150612f47828286612f53565b92505050949350505050565b60608315612f6357829050613018565b600083511115612f765782518084602001fd5b816040517f08c379a00000000000000000000000000000000000000000000000000000000081526004018080602001828103825283818151815260200191508051906020019080838360005b83811015612fdd578082015181840152602081019050612fc2565b50505050905090810190601f16801561300a5780820380516001836020036101000a031916815260200191505b509250505060405180910390fd5b9392505050565b828054600181600116156101000203166002900490600052602060002090601f016020900481019282613055576000855561309c565b82601f1061306e57805160ff191683800117855561309c565b8280016001018555821561309c579182015b8281111561309b578251825591602001919060010190613080565b5b5090506130a991906130ad565b5090565b5b808211156130c65760008160009055506001016130ae565b509056fe456e756d657261626c655365743a20696e646578206f7574206f6620626f756e64734552433732313a207472616e7366657220746f206e6f6e20455243373231526563656976657220696d706c656d656e7465724f776e61626c653a206e6577206f776e657220697320746865207a65726f20616464726573734552433732313a207472616e7366657220746f20746865207a65726f2061646472657373416464726573733a20696e73756666696369656e742062616c616e636520666f722063616c6c4552433732313a206f70657261746f7220717565727920666f72206e6f6e6578697374656e7420746f6b656e4552433732313a20617070726f76652063616c6c6572206973206e6f74206f776e6572206e6f7220617070726f76656420666f7220616c6c4552433732313a2062616c616e636520717565727920666f7220746865207a65726f20616464726573734552433732313a206f776e657220717565727920666f72206e6f6e6578697374656e7420746f6b656e456e756d657261626c654d61703a20696e646578206f7574206f6620626f756e64734552433732313a20617070726f76656420717565727920666f72206e6f6e6578697374656e7420746f6b656e4552433732314d657461646174613a2055524920736574206f66206e6f6e6578697374656e7420746f6b656e4552433732313a207472616e73666572206f6620746f6b656e2074686174206973206e6f74206f776e4552433732314d657461646174613a2055524920717565727920666f72206e6f6e6578697374656e7420746f6b656e4552433732313a20617070726f76616c20746f2063757272656e74206f776e65724552433732313a207472616e736665722063616c6c6572206973206e6f74206f776e6572206e6f7220617070726f766564a2646970667358221220bdc5f6dcf7c048a2a56d91c0b3b3d365d05b167ec6b6f577ddaa845cf49c307964736f6c63430007060033",
  "linkReferences": {},
  "deployedLinkReferences": {}
}